:020000040800F2
:1000000000280020592E00083F1B0008411B000853
:10001000431B0008451B0008471B000800000000A8
:10002000000000000000000000000000491B000864
:100030004B1B0008000000004D1B00084F1B000870
:10004000A12E0008A12E0008A12E0008A12E000854
:10005000A12E0008A12E0008A12E0008A12E000844
:10006000A12E0008A12E0008A12E0008A12E000834
:10007000A12E0008A12E0008A12E0008A12E000824
:10008000A12E0008A12E0008A12E0008A12E000814
:10009000A12E0008A12E0008A12E0008A12E000804
:1000A000A12E0008A12E0008A12E0008A12E0008F4
:1000B000A12E0008A12E000800000000A12E0008BB
:1000C000A12E00080000000000000000A12E000882
:1000D00000000000A12E0008A12E00080000000072
:1000E000A12E0008A12E0008A12E0008000000008B
:1000F0000000000000000000000000000000000000
:0C01000000000000000000005FF808F1A3
:10010C0030B51B4C002924689BB02BDB4FF000054D
:10011C00009004904FF402701995ADF80C004FF656
:10012C00FF7511D001390291059120466946ADF851
:10013C000E5000F00BFB421C01DA8B2323600022D3
:10014C00009B1A701BB030BD029105912046694688
:10015C00ADF80E5000F0FAFA431C01DA8B23236041
:10016C001BB030BD8B234FF0FF302360F8E700BF8E
:10017C000000002030B51446002C05469BB02CDB4B
:10018C001A4600914FF4027304914FF000014FF6A0
:10019C00FF7C1991ADF80C3011D0013C69461E9BC7
:1001AC0002940594ADF80EC000F0D0FA421C01DAAE
:1001BC008B232B600022009B1A701BB030BD1E9B42
:1001CC00694602940594ADF80EC000F0BFFA431CCA
:1001DC0001DA8B232B601BB030BD8B234FF0FF302B
:1001EC002B60F8E770B5860747D0541E002A3ED026
:1001FC000346CAB201E0013C39D303F8012B9D0739
:10020C00F9D1032C2CD9CDB205EB05250F2C1A46B0
:10021C0005EB054534D9A4F1100C2CF00F0603F1B5
:10022C00100EB6444FEA1C1C156055609560D560E5
:10023C0010327245F8D10CF1010214F00C0F03EBE3
:10024C00021204F00F0C13D0ACF1040323F00303DF
:10025C000433134442F8045B9A42FBD10CF00304C0
:10026C002CB1C9B21C4403F8011B9C42FBD170BDDC
:10027C0064461346002CF4D1F9E703461446C0E754
:10028C00A446E1E7014B1868704700BF000000204E
:10029C0070B50F4B0F4DAB42A3EB050607D00024F6
:1002AC00B61055F8043B01349847A642F9D802F031
:1002BC00F3FD094D094B5E1BAB424FEAA60606D077
:1002CC00002455F8043B01349847A642F9D870BD78
:1002DC00482F0008482F0008482F00084C2F000812
:1002EC00704700BF704700BF704700BF704700BF2A
:1002FC00704700BF704700BF012070470120704756
:10030C00704700BF704700BF20F0030110F00300DE
:10031C00C0F1000051F8043B00F1040C4FEACC0C86
:10032C006FF000021CBF22FA0CF213434FF0010CC9
:10033C004CEA0C2C4CEA0C4CA3EB0C0222EA030208
:10034C0012EACC1204BF51F8043B0430F4D0C2F1D1
:10035C00000102EA0102B2FA82F2C2F11F0200EBC2
:10036C00D2007047002950D038B551F8043C0C1F0E
:10037C00002BB8BFE418054600F0F4F8274A1368C0
:10038C002BB1A3420CD92168601883422CD028468B
:10039C0063601460BDE8384000F0EAB8A3420FD89F
:1003AC001A465B68002BF9D111685018844217D09B
:1003BC002CD3636054602846BDE8384000F0D8B8B0
:1003CC0011685018A04214D020D8216860188342BC
:1003DC00EFD118685B680844C4E900035460EAE78D
:1003EC0023680B441360E6E718685B6808442060D8
:1003FC00CDE720680144501883421160DBD1D3E96A
:10040C0000040144C2E90014D5E770470C232846C8
:10041C002B60BDE8384000F0ABB800BFDC01002019
:10042C0070B5114E054633680C46BBB121462846C3
:10043C0000F0F4FC431C01460CD0C41C24F0030453
:10044C00A04205D02846611A00F0E8FC013001D02A
:10045C00204670BD4FF0FF34204670BD194600F0A9
:10046C00DDFC3060E2E700BFD80100202DE9F0414F
:10047C00CD1C25F0030508350C2D38BF0C25002D9F
:10048C00064682B016DBA94214D8354F00F06AF844
:10049C007A68AAB1144603E06368224683B11C460D
:1004AC0023685B1BF8D40B2B21D8A242636855D070
:1004BC0053600DE00C233360002002B0BDE8F081E6
:1004CC0029463046FFF7ACFF431C044619D00560A3
:1004DC00304600F04DF804F10B00231D20F007000E
:1004EC00C21A1CBF1B1AA35002B0BDE8F0816119DF
:1004FC00A242256014BF51607960635163684B6000
:10050C00E6E77B6823B31C465B68002BFBD12268B3
:10051C001946304604EB0208019300F07FFC80453D
:10052C0016D122683046AD1A2946FFF779FF013003
:10053C000ED0226878682A4422604268019B12B966
:10054C000CE010465268A242FBD100234360BFE787
:10055C000C233046336000F00BF8ADE77B60B7E757
:10056C00D80100200148FFF7C5BE00BFC80100201C
:10057C000148FFF7C7BE00BFC80100202DE9F047B6
:10058C001D468F680C46AF4216460B6836D8B1F93B
:10059C000CC01CF4906F0ED13D4618462A463146CD
:1005AC0000F0BEFB0020A2682368D21B2B44A26083
:1005BC002360BDE8F0874A69096902EB42025F1AC1
:1005CC0002EBD2726B1C52103B44934292BF914689
:1005DC0099461A461CF4806F804611D01146FFF7DD
:1005EC0045FF824600B33A46216900F075FCA389A9
:1005FC0023F4906343F08003A38105E02F46CCE7FE
:10060C0000F0E0FC824658B10AEB0703A9EB0707A0
:10061C00A760C4F810A02F46C4F814902360BCE760
:10062C0040462169FFF79EFE0C22A3894FF0FF3054
:10063C0043F04003C8F80020A381BAE72DE9F04F3E
:10064C00936883B0924617680190002B76D04FF0D8
:10065C00000B0C465D468B680A6848E0B4F90CC088
:10066C001CF4906F2FD0D4E90403A2EB000803EB29
:10067C00430202EBD27208F101015210294491425B
:10068C0092BF914689460A461CF4806F39D01146B8
:10069C000198FFF7EBFE064600283DD04246216943
:1006AC0000F01AFCA28922F4906242F08002A2812E
:1006BC0006EB0800A9EB08022661A8462E46A260AC
:1006CC002060C4F814903246594600F029FBDAF841
:1006DC000810A3682268A3EB08033244491BA360EB
:1006EC002260CAF8081049B3D7E900B50837984614
:1006FC001046002DF8D09D421E46AFD2A8462E467D
:10070C00E1E70146019800F05DFC06460028CFD1D8
:10071C0001982169FFF726FE0C21A389019D43F066
:10072C00400329600022A3814FF0FF300023CAF858
:10073C000820CAF8043003B0BDE8F08F0020002375
:10074C00CAF8043003B0BDE8F08F00BF2DE9F04FBC
:10075C001C468B8989461D06824693469DB003D55F
:10076C000B69002B00F0EE80002343F2200209936A
:10077C009BF8003001277C4E0394ADF82920002B08
:10078C0071D05D4603E015F8013F002B73D0252B8B
:10079C00F9D1B5EB0B0471D12A78002A63D0002370
:1007AC004FF0FF320135CDE90523049307938DF803
:1007BC0053301A9306E02546049B801B07FA00F081
:1007CC00034304932C46052214F8011B304600F019
:1007DC0037FBA3460028EED1049BD90644BF202248
:1007EC008DF853201A0748BF2B22297848BF8DF863
:1007FC0053202A294FD1039A1168043200290392FD
:10080C007BDB079169782E295BD0584C032220465C
:10081C0000F016FB38B14022049B001B82401343AE
:10082C000BF1010B04931BF8011B062250488DF8A9
:10083C00281000F005FB002865D04E4B002B55D03E
:10084C0003A900914A4650464B4B04A9AFF30080D4
:10085C008046B8F1FF3F06D0099B434409939BF8AF
:10086C000030002B8DD1B9F80C305B0679D4099887
:10087C001DB0BDE8F08FB5EB0B04F4D023465A46FF
:10088C0049465046FFF77AFE0130ECD0099B2A7896
:10089C002344099381E7A1F13002092A88BFAB46B2
:1008AC00B1D8079B00E00134217803EB830302EB02
:1008BC004303A1F13002092AF5D92E29A346079347
:1008CC00A3D19BF801102A2927D1039B0BF102001D
:1008DC001A680433002A0393B8BF4FF0FF339BF818
:1008EC00021005928346B8BF05938EE7039B07332E
:1008FC0023F0070308330393AEE7494243F00203A6
:10090C00079104937EE703A900914A4650461A4B7F
:10091C0004A900F0C5F880469BE70023A1F1300242
:10092C00092A0BF1010B05933FF66FAF1BF8011F62
:10093C0003EB830302EB4303A1F13002092AF5D93F
:10094C00059362E74021FFF791FDC9F80000C9F853
:10095C00100018B14023C9F8143005E70C23CAF86D
:10096C0000304FF0FF3083E7D82E0008E02E00084F
:10097C00E42E000800000000890500082DE9F84F5E
:10098C0092461F460A698B680C469A42B8BF1A46B3
:10099C00CAF8002091F843300646DDF8289013B1D0
:1009AC000132CAF80020226891065FD5DAF80030CF
:1009BC000233CAF80030226812F0060F11461DD11E
:1009CC00E1689942D8BF114618DD4FF0000804F1D8
:1009DC00190B05E0E568DAF80030ED1A45450CDD39
:1009EC0001235A4639463046C847013008F1010800
:1009FC00F0D14FF0FF30BDE8F88F216894F8433008
:100A0C00003B18BF01238A060AD53021E21882F870
:100A1C00431094F845105A1C2244023382F84310B8
:100A2C003946304604F14302C8470130E1D0D4E9DD
:100A3C0002202368DAF8005003F00603042B216926
:100A4C001BD08A4220DD4FF00008521A904400253A
:100A5C001A3401E0454517DA01232246394630465F
:100A6C00C847013005F10105F4D1C2E712F0060FB9
:100A7C000DD0003B18BF0123D2E7401B8A4220EA6D
:100A8C00E078E2DC0028E2DC0020BDE8F88FE168C9
:100A9C00DAF800309942D8BF114696DCAEE700BFB9
:100AAC002DE9F04717460A7E84B00C460646984658
:100ABC000C9D01F1430C002A35D0A2F15803D9B298
:100ACC00202969D8202B67D8DFE813F0E0006600F6
:100ADC0066006600660066006600660066006600DA
:100AEC006600940070006600660066006600700088
:100AFC00660066006600660021008300AE0066009A
:100B0C0066009E006600830066006600E6002B68A7
:100B1C002268181D6169286010061B6802D45206F1
:100B2C0000F1DC8019600023E14623613B4621463D
:100B3C003046CDF8008003AAFFF720FF013020D00B
:100B4C004A46394630462369C047013019D02368DC
:100B5C00E0689B07DDF80C9018D5484516DD00259C
:100B6C0004F1190A04E0E068A0EB0903AB420DDDC7
:100B7C000123524639463046C047013005F1010584
:100B8C00F1D14FF0FF3004B0BDE8F0874845B8BF55
:100B9C00484604B0BDE8F087012084F8422004F1F7
:100BAC0042090023206184F84330BFE72A68236898
:100BBC00111D2960190602D45D0600F1938010689E
:100BCC00014600286268C0F291804FF00A0E52482C
:100BDC004AE02B682168181D2860080601D44906D4
:100BEC007ED419686F2A14BF4FF00A0E4FF0080E0E
:100BFC00494835E02A680120116804322A6004F162
:100C0C00420984F84210CCE72B6800211A1D2A6097
:100C1C00D3F800906268484600F012F9002879D0A9
:100C2C00A0EB09006060BCE7236843F0200323605D
:100C3C0078223A4884F845202A68111D29601D063F
:100C4C004AD4590648D51188DA0744BF43F020032B
:100C5C00236019B9236823F0200323604FF0100E92
:100C6C000023626884F84330002AA26016DB2368F4
:100C7C0023F00403236089B9002A45D1E146BEF173
:100C8C00080F1CD0ACEB090323614FE75823224813
:100C9C0084F845302368CFE72368C9E77546E146F9
:100CAC00B1FBF5F30A4605FB131A194610F80A3086
:100CBC00AA4209F8013DF3D2BEF1080FE2D1236834
:100CCC00DD07DFD5626823699A42DBDC302309F14A
:100CDC00FF3989F80030D5E71168B5E7198022E7AC
:100CEC0019887FE7B2F9001008466AE72D20002A20
:100CFC00A26084F8430002DB23F0040323600A257E
:100D0C000548AE464942CAE7037804F1420984F823
:100D1C004230B4E7606844E7EC2E0008002F00086E
:100D2C0088420ED98B1883420BD900EB020C002A97
:100D3C006DD0624613F801CD994202F801CDF9D17C
:100D4C0070470F2A0FD8034602F1FF3C002A5ED0F1
:100D5C000CF1010C013B8C4411F8012B614503F89B
:100D6C00012FF9D1704740EA01039B0750D1A2F142
:100D7C00100370B501F1200C23F00F0501F1100EDA
:100D8C0000F11004AC441B095EF8105C0EF1100E5F
:100D9C0044F8105C5EF81C5C103444F81C5C5EF883
:100DAC00185C44F8185C5EF8145CE64544F8145C76
:100DBC00EAD1013312F00C0F01EB031102F00F0416
:100DCC0000EB031328D08E46043C24F003064FEAB4
:100DDC00940C1E441C1F5EF8045B44F8045FB44280
:100DEC00F9D10CF1010402F0030203EB840301EBD3
:100DFC00840102F1FF3C4AB10CF1010C013B8C4423
:100E0C0011F8012B614503F8012FF9D170BD704722
:100E1C00034602F1FF3C9BE72246EAE7002238B585
:100E2C00064D044608462A6001F026FF431C00D0FC
:100E3C0038BD2B68002BFBD0236038BDB4010020DB
:100E4C005FFA81FC810744D00346511E22B909E0A8
:100E5C009A0709D0013905D3184602780133624547
:100E6C00F6D1704700207047184603290CD800298A
:100E7C00F8D00346014401E08B42F3D0184613F836
:100E8C00012B6245F8D1ECE710B50CEB0C240246B3
:100E9C0004EB044402E00439032918D9104652F833
:100EAC00043B6340A3F1013E2EEA030313F0803FA1
:100EBC00F1D051B10346014401E08B4205D01846F4
:100ECC0013F8012B6245F8D110BD002010BD10465F
:100EDC00EFE71146C9E700BF844641EA000313F06F
:100EEC00030349D1403A23D30B6803604B6843603A
:100EFC008B688360CB68C3600B6903614B6943618A
:100F0C008B698361CB69C3610B6A03624B6A436271
:100F1C008B6A8362CB6AC3620B6B03634B6B436359
:100F2C008B6B8363CB6BC36340304031403ADBD275
:100F3C0030320BD30B6803604B6843608B68836063
:100F4C00CB68C36010301031103AF3D20C3205D399
:100F5C0051F8043B40F8043B043AF9D2043208D06F
:100F6C00D2071CBF11F8013B00F8013B01D30B88E1
:100F7C0003806046704700BF082A13D38B07B1D09B
:100F8C0010F00303AED0C3F10403D21ADB071CBF6D
:100F9C0011F8013B00F8013BA4D331F8023B20F8D7
:100FAC00023B9FE7043AD9D3013A11F8013B00F810
:100FBC00013BF9D20B7803704B7843708B788370BC
:100FCC00604670472DE9F041144649B3EAB1064634
:100FDC000D4600F02BF88442074602D8B4EB500FB4
:100FEC001AD821463046FFF741FA804678B1BC4208
:100FFC002246294628BF3A46FFF76EFF304629465F
:10100C00FFF7B0F94046BDE8F081FFF7ABF94FF0C0
:10101C0000084046BDE8F081A8464046BDE8F08196
:10102C001146BDE8F041FFF721BA00BF51F8043C6E
:10103C00181F002BBCBF0B58C018704780F0004025
:10104C0002E000BF81F0004142001FBF5FEA410394
:10105C0092EA030F7FEA226C7FEA236C6AD04FEA94
:10106C001262D2EB1363C1BFD218414048404140D9
:10107C00B8BF5B42192B88BF704710F0004F40F48B
:10108C00000020F07F4018BF404211F0004F41F4A7
:10109C00000121F07F4118BF494292EA030F3FD073
:1010AC00A2F1010241FA03FC10EB0C00C3F1200386
:1010BC0001FA03F100F0004302D5494260EB400015
:1010CC00B0F5000F13D3B0F1807F06D340084FEA80
:1010DC00310102F10102FE2A51D2B1F1004F40EB75
:1010EC00C25008BF20F0010040EA030070474900DD
:1010FC0040EB0000013A28BFB0F5000FEDD2B0FA7A
:10110C0080FCACF1080CB2EB0C0200FA0CF0AABF9C
:10111C0000EBC25052421843BCBFD040184370473A
:10112C0092F0000F81F4000106BF80F40000013240
:10113C00013BB5E74FEA41037FEA226C18BF7FEA17
:10114C00236C21D092EA030F04D092F0000F08BF59
:10115C000846704790EA010F1CBF0020704712F040
:10116C007F4F04D1400028BF40F00040704712F17F
:10117C0000723CBF00F50000704700F0004343F0E4
:10118C00FE4040F4000070477FEA226216BF08461A
:10119C007FEA23630146420206BF5FEA412390EADD
:1011AC00010F40F4800070474FF0000304E000BFD3
:1011BC0010F0004348BF40425FEA000C08BF704784
:1011CC0043F0964301464FF000001CE050EA010248
:1011DC0008BF70474FF000030AE000BF50EA01025D
:1011EC0008BF704711F0004302D5404261EB41014A
:1011FC005FEA010C02BF84460146002043F0B6436F
:10120C0008BFA3F18053A3F50003BCFA8CF2083A93
:10121C00A3EBC25310DB01FA02FC634400FA02FC9C
:10122C00C2F12002BCF1004F20FA02F243EB0200A3
:10123C0008BF20F00100704702F1200201FA02FC05
:10124C00C2F1200250EA4C0021FA02F243EB0200F8
:10125C0008BF20EADC7070474FF0FF0C1CEAD0523C
:10126C001EBF1CEAD15392EA0C0F93EA0C0F6FD0FD
:10127C001A4480EA010C400218BF5FEA41211ED0DB
:10128C004FF0006343EA501043EA5111A0FB0131C7
:10129C000CF00040B1F5000F3EBF490041EAD3719C
:1012AC005B0040EA010062F17F02FD2A1DD8B3F118
:1012BC00004F40EBC25008BF20F00100704790F087
:1012CC00000F0CF0004C08BF49024CEA502040EAD9
:1012DC0051207F3AC2BFD2F1FF0340EAC25070479F
:1012EC0040F400004FF00003013A5DDC12F1190FDD
:1012FC00DCBF00F000407047C2F10002410021FA4F
:10130C0002F1C2F1200200FA02FC5FEA310040F166
:10131C00000053EA4C0308BF20EADC70704792F0DF
:10132C00000F00F0004C02BF400010F4000F013A17
:10133C00F9D040EA0C0093F0000F01F0004C02BF12
:10134C00490011F4000F013BF9D041EA0C018FE781
:10135C000CEAD15392EA0C0F18BF93EA0C0F0AD087
:10136C0030F0004C18BF31F0004CD8D180EA0100AD
:10137C0000F00040704790F0000F17BF90F0004F46
:10138C00084691F0000F91F0004F14D092EA0C0F28
:10139C0001D142020FD193EA0C0F03D14B0218BFBB
:1013AC00084608D180EA010000F0004040F0FE4001
:1013BC0040F40000704740F0FE4040F4400070479D
:1013CC004FF0FF0C1CEAD0521EBF1CEAD15392EA1C
:1013DC000C0F93EA0C0F69D0A2EB030280EA010C0C
:1013EC0049024FEA402037D04FF0805343EA1111A5
:1013FC0043EA10130CF000408B4238BF5B0042F103
:10140C007D024FF4000C8B4224BF5B1A40EA0C00A7
:10141C00B3EB510F24BFA3EB510340EA5C00B3EBD9
:10142C00910F24BFA3EB910340EA9C00B3EBD10FC7
:10143C0024BFA3EBD10340EADC001B0118BF5FEA19
:10144C001C1CE0D1FD2A3FF650AF8B4240EBC25042
:10145C0008BF20F0010070470CF0004C4CEA502003
:10146C007F32C2BFD2F1FF0340EAC250704740F452
:10147C0000004FF00003013A37E792F0000F00F044
:10148C00004C02BF400010F4000F013AF9D040EAC2
:10149C000C0093F0000F01F0004C02BF490011F456
:1014AC00000F013BF9D041EA0C0195E70CEAD1534E
:1014BC0092EA0C0F08D142027FF47DAF93EA0C0F35
:1014CC007FF470AF084676E793EA0C0F04D14B0219
:1014DC003FF44CAF08466EE730F0004C18BF31F0CB
:1014EC00004CCAD130F000427FF45CAF31F00043C5
:1014FC007FF43CAF5FE700BF4FF0FF3C06E000BF5E
:10150C004FF0010C02E000BF4FF0010C4DF804CD80
:10151C004FEA40024FEA41037FEA226C18BF7FEA90
:10152C00236C11D001B052EA530C18BF90EA010F92
:10153C0058BFB2EB030088BFC81738BF6FEAE17021
:10154C0018BF40F0010070477FEA226C02D15FEABD
:10155C00402C05D17FEA236CE4D15FEA412CE1D029
:10156C005DF8040B704700BF844608466146FFE7F0
:10157C000FB5FFF7C9FF002848BF10F1000F0FBDD2
:10158C004DF808EDFFF7F4FF0CBF012000205DF8CB
:10159C0008FB00BF4DF808EDFFF7EAFF34BF012050
:1015AC0000205DF808FB00BF4DF808EDFFF7E0FFE9
:1015BC0094BF012000205DF808FB00BF4DF808ED3A
:1015CC00FFF7D2FF94BF012000205DF808FB00BF9D
:1015DC004DF808EDFFF7C8FF34BF012000205DF87F
:1015EC0008FB00BF4FEA4002B2F1FE4F0FD34FF0A1
:1015FC009E03B3EB12620DD94FEA002343F0004374
:10160C0010F0004F23FA02F018BF404270474FF021
:10161C000000704712F1610F01D1420205D110F0A8
:10162C00004008BF6FF0004070474FF0000070475B
:10163C0010B5054C237833B9044B13B10448AFF300
:10164C0000800123237010BDE00100200000000089
:10165C00A42E000808B5034B1BB103490348AFF394
:10166C00008008BD00000000E4010020A42E00084A
:10167C0000B585B0054A01AB07CA83E807001846D8
:10168C0001F0B8FB05B05DF804FB00BFBC2E0008F0
:10169C0010B586B000F01EFC00F006FA00F0A4F8BD
:1016AC0000F0C0F8144800F0A1FA00F00FF9FFF7B1
:1016BC00DFFF002300221946012001F057FB4FF4F5
:1016CC0000510E4801F005F94FF47A7000F026FC39
:1016DC0001F076FB04460021FFF752FF0028EED103
:1016EC00052201A9204600F06DF901A9044800F07B
:1016FC004BF901F079FBFEE7FC01002000100140E2
:10170C00C82E000872B6FEE770B586B000240294AD
:10171C000394049405940E4B9A6942F010029A615A
:10172C009B6903F010030193019B4FF40056029642
:10173C000123039302230593064D02A9284600F0CA
:10174C00B1FF22463146284601F0BDF806B070BD07
:10175C00001002400010014000B587B00023029336
:10176C0003930493059303F1804303F504339A69BF
:10177C0042F008029A619B6903F008030193019BF4
:10178C004FF48073029302A9024800F08BFF07B05C
:10179C005DF804FB000C014070B586B00024029487
:1017AC000394049405940E4B9A6942F008029A61D2
:1017BC009B6903F008030193019B4FF4007602969A
:1017CC000123039303230593064D02A9284600F039
:1017DC0069FF22463146284601F075F806B070BD07
:1017EC0000100240000C014008B5FFF78DFFFFF719
:1017FC00B3FFFFF7D1FF08BD08B5C2B24FF40071BB
:10180C00024801F060F8002008BD00BF000C014048
:10181C0008B54FF48071024801F04EF808BD00BFC6
:10182C00000C014000B587B000230293039304938E
:10183C0005930093019315484FF0804202604722B4
:10184C00426083604FF6FF72C2600361836100F0F7
:10185C0031FA90B94FF48053029302A90B4800F06F
:10186C0061FA68B90023009301936946074800F0B8
:10187C00D9FA40B907B05DF804FBFFF743FFE9E77D
:10188C00FFF740FFEEE7FFF73DFFF3E7FC01002019
:10189C000368B3F1804F00D0704782B003F5043376
:1018AC00DA6942F00102DA61DB6903F001030193AA
:1018BC00019B02B070470000034B1A68002353626F
:1018CC00536A8342FCD37047FC01002008B50A48D8
:1018DC000A4B03604FF4E133436000238360C36021
:1018EC0003610C2242618361C36101F02EF900B9DE
:1018FC0008BDFFF707FFFBE744020020003801405A
:10190C0030B587B0002302930393049305930268C8
:10191C001B4B9A4201D007B030BD03F558439A696E
:10192C0042F480429A619A6902F480420092009AD1
:10193C009A6942F004029A619B6903F004030193D3
:10194C00019B4FF40073029302230393032305932B
:10195C000C4D02A9284600F0A5FE4FF480630293BB
:10196C0000240394049402A9284600F09BFE22460E
:10197C002146252000F0FCFF252001F009F8CAE7DC
:10198C0000380140000801400FB400B5C3B044ABAF
:10199C0053F8042B01934FF4807102A8FEF7B0FBAF
:1019AC0002A8FEF7B1FC4FF0FF3382B202A9044843
:1019BC0001F0FBF843B05DF804EB04B0704700BFD6
:1019CC00440200202DE9F84306460C46171E08DB9E
:1019DC0000213046FFF7DEFD28B900254FF07C5082
:1019EC000BE00027F4E706F100462D2304F8013B39
:1019FC00F3E72B49FFF7E4FC0135AF42F9DC014674
:101A0C003046FFF721FB0546FFF7ECFD0646FFF7D6
:101A1C00CFFB01462846FFF715FB0025214A82FB28
:101A2C000632F317C3EBA2031A4603EB8303A6EBB0
:101A3C004303294601353033635433461646092B8C
:101A4C00ECDC0A46002307E0E65C14F802C004F85C
:101A5C0003C0A6540133013A9342F5DB002F02DD9B
:101A6C002E2363558D1C4FF0000813E00C49FFF733
:101A7C00F3FB0646FFF7B6FD05F1010900F1300353
:101A8C006355FFF795FB01463046FFF7DBFA08F18B
:101A9C0001084D464745E9DC00236355BDE8F88352
:101AAC00000020416766666600B595B028220021CB
:101ABC000DEB0200FEF796FB0023059306930793AC
:101ACC0008930993019302930393049301220A92BE
:101ADC004FF480330B930E920222119212934FF417
:101AEC00E01313930AA800F043FAC8B90F23059327
:101AFC0002210691002307934FF480620892099308
:101B0C0005A800F067FC70B9022301934FF4004361
:101B1C00039301A800F03AFD40B915B05DF804FB41
:101B2C00FFF7F0FDE2E7FFF7EDFDEDE7FFF7EAFD6C
:101B3C00F3E7FEE7FEE7FEE7FEE7FEE770477047D8
:101B4C00704708B500F0D8F908BD000082B00E4B04
:101B5C009A6942F001029A619A6902F001020092BC
:101B6C00009ADA6942F08052DA61DB6903F0805343
:101B7C000193019B054A536823F0E06343F0007323
:101B8C00536002B0704700BF0010024000000140DB
:101B9C0010B4036A046A24F001040462846924F01A
:101BAC00F00C4CEA021223F00A030B43826103622D
:101BBC0010BC704710B4036A046A24F01004046269
:101BCC00846924F4704C4CEA023223F0A00343EAFB
:101BDC0001138261036210BC7047836823F07003A9
:101BEC000B4343F0070383607047000090F83D30CF
:101BFC00DBB2012B1ED1022380F83D3003680F4A63
:101C0C0093420CD0B3F1804F09D0A2F59432934299
:101C1C0005D01A6842F001021A60002070479A68D9
:101C2C0002F00702062A07D01A6842F001021A6075
:101C3C00002070470120704700207047002C0140A5
:101C4C0003681B4A904206D0B0F1804F03D0A2F536
:101C5C009432904203D123F070034A681343144A20
:101C6C00904206D0B0F1804F03D0A2F5943290424E
:101C7C0003D123F44073CA68134323F080034A69E9
:101C8C00134303608B68C3620B688362084B9842F2
:101C9C000AD001234361036913F0010F03D00369D8
:101CAC0023F00103036170470B690363F1E700BF85
:101CBC00002C014040B310B5044690F83D30F3B110
:101CCC00022384F83D30214651F8040BFFF7B8FF8E
:101CDC00012384F8463084F83E3084F83F3084F891
:101CEC00403084F8413084F8423084F8433084F832
:101CFC00443084F8453084F83D30002010BD80F825
:101D0C003C30FFF7C5FDDBE70120704710B4846859
:101D1C0024F47F4C42EA03220A4342EA0C0282601A
:101D2C0010BC704790F83C30012B78D010B50446AD
:101D3C00012380F83C30022380F83D300268936820
:101D4C0023F47F4323F0770393600B68602B4CD014
:101D5C0023D8402B54D011D8202B03D00AD80BB148
:101D6C00102B05D119462068FFF737FF002028E01B
:101D7C00012026E0302BF5D0012022E0502B0AD197
:101D8C00CA6849680068FFF703FF50212068FFF715
:101D9C0024FF002015E0012013E0B3F5805F3AD05A
:101DAC00B3F5005F14D0702B37D1CB684A688968C3
:101DBC000068FFF7ABFF2268936843F077039360EA
:101DCC000020012384F83D30002384F83C3010BD02
:101DDC00CB684A6889680068FFF798FF22689368A7
:101DEC0043F4804393600020EBE7CA6849680068BD
:101DFC00FFF7E0FE60212068FFF7EFFE0020E0E730
:101E0C00CA6849680068FFF7C3FE40212068FFF7E5
:101E1C00E4FE0020D5E70020D3E70120D1E7022023
:101E2C007047000090F83C20012A28D010B40346DB
:101E3C00012280F83C20022280F83D200268506884
:101E4C00946820F0700C086840EA0C0050601A6826
:101E5C000C48824206D0B2F1804F03D0A0F59430EA
:101E6C00824204D124F0800449682143916001220C
:101E7C0083F83D20002083F83C0010BC7047022002
:101E8C00704700BF002C014010B504460E4B1A7869
:101E9C004FF47A73B3FBF2F30C4A1068B0FBF3F017
:101EAC0000F084FD68B90F2C01D901200AE0002252
:101EBC0021464FF0FF3000F05BFD054B1C6000200D
:101ECC0000E0012010BD00BF500000205800002091
:101EDC005400002008B5074A136843F01003136040
:101EEC00032000F033FD0F20FFF7CEFFFFF72EFE8F
:101EFC00002008BD00200240034A1168034B1B78E8
:101F0C000B441360704700BF8C020020500000206F
:101F1C00014B1868704700BF8C02002038B504468E
:101F2C00FFF7F6FF0546B4F1FF3F02D0044B1B78D8
:101F3C001C44FFF7EDFF401BA042FAD338BD00BF95
:101F4C005000002082B0084B1B68084AA2FB0323F8
:101F5C005B0A00FB03F3019300BF019B5A1E019225
:101F6C00002BF9D102B0704758000020D34D6210FD
:101F7C00002800F0F18170B582B00446036813F0BC
:101F8C00010F2CD0994B5B6803F00C03042B1DD074
:101F9C00964B5B6803F00C03082B12D06368B3F507
:101FAC00803F41D0002B55D103F1804303F504331E
:101FBC001A6822F480321A601A6822F480221A609D
:101FCC0037E08A4B5B6813F4803FE7D0874B1B6884
:101FDC0013F4003F03D06368002B00F0BF8123682B
:101FEC0013F0020F75D0814B5B6813F00C0F5FD0B0
:101FFC007E4B5B6803F00C03082B54D02369002B39
:10200C0000F08A807A4B01221A60FFF781FF0546A7
:10201C00764B1B6813F0020F75D1FFF779FF401B4D
:10202C000228F5D903209EE1704A136843F48033EB
:10203C001360636843B3FFF76BFF05466B4B1B687C
:10204C0013F4003FCBD1FFF763FF401B6428F5D995
:10205C00032088E1B3F5A02F09D0644B1A6822F451
:10206C0080321A601A6822F480221A60E1E703F1C8
:10207C008043A3F53C331A6842F480221A601A6834
:10208C0042F480321A60D4E7FFF742FF0546574B03
:10209C001B6813F4003FA2D0FFF73AFF401B6428E3
:1020AC00F5D903205FE1514B5B6813F4803FA5D158
:1020BC004E4B1B6813F0020F03D02369012B40F029
:1020CC004F814A4A136823F0F803616943EAC1035C
:1020DC001360236813F0080F33D0A369002B5CD076
:1020EC00434B0122C3F88024FFF712FF05463F4BF8
:1020FC005B6A13F0020F21D1FFF70AFF401B022885
:10210C00F5D903202FE1394A136823F0F8036169EC
:10211C0043EAC1031360DCE7354B00221A60FFF77A
:10212C00F7FE0546314B1B6813F0020FD1D0FFF7B9
:10213C00EFFE401B0228F5D9032014E10120FFF724
:10214C0001FF236813F0040F00F09680274BDB6926
:10215C0013F0805F34D1254BDA6942F08052DA619A
:10216C00DB6903F080530193019B0125214B1B6814
:10217C0013F4807F26D0E368012B3DD0002B53D184
:10218C0003F1804303F504331A6A22F001021A6248
:10219C001A6A22F004021A6233E0154B0022C3F8CB
:1021AC008024FFF7B5FE0546104B5B6A13F0020F57
:1021BC00C7D0FFF7ADFE401B0228F5D90320D2E0B3
:1021CC000025D3E70B4A136843F480731360FFF7C1
:1021DC009FFE0646074B1B6813F4807FCBD1FFF79D
:1021EC0097FE801B6428F5D90320BCE00010024048
:1021FC0000004242007000405F4A136A43F0010342
:10220C001362E36833B3FFF783FE06465A4B1B6A2F
:10221C0013F0020F2FD1FFF77BFE801B41F28833A6
:10222C009842F3D903209EE0052B09D0524B1A6A31
:10223C0022F001021A621A6A22F004021A62E0E722
:10224C004D4B1A6A42F004021A621A6A42F00102F9
:10225C001A62D6E7FFF75CFE0646474B1B6A13F083
:10226C00020F08D0FFF754FE801B41F288339842CE
:10227C00F3D9032077E0E5B9E369002B72D03E4A2D
:10228C00526802F00C02082A56D0022B17D03B4B96
:10229C0000221A66FFF73CFE0446374B1B6813F00E
:1022AC00007F47D0FFF734FE001B0228F5D903202E
:1022BC0059E0314AD36923F08053D361DCE72F4BCB
:1022CC0000221A66FFF724FE05462B4B1B6813F001
:1022DC00007F06D0FFF71CFE401B0228F5D9032017
:1022EC0041E0236AB3F5803F1AD023494B6823F4AD
:1022FC007413226A606A024313434B601F4B012222
:10230C001A66FFF705FE04461B4B1B6813F0007F93
:10231C000ED1FFF7FDFD001B0228F5D9032022E0AA
:10232C00154A536823F40033A1680B435360DCE770
:10233C00002018E0002016E0012B16D00E4B5B6835
:10234C0003F48031226A914211D103F47013626A52
:10235C0093420ED1002006E001207047012002E0DC
:10236C00012000E0002002B070BD0120FBE701203D
:10237C00F9E70120F7E700BF0010024000004242DD
:10238C000F4B5B6803F00C02082A01D00D48704714
:10239C00C3F383420C49885C13F4803F0BD0084B89
:1023AC005B68C3F34043094AD35C064A02FB00F066
:1023BC00B0FBF3F07047064B03FB00F0704700BF17
:1023CC000010024000127A00182F0008142F000889
:1023DC0000093D00002800F0A08070B50D460446B1
:1023EC00524B1B6803F007038B420BD24F4A136806
:1023FC0023F007030B431360136803F007038B42AE
:10240C0040F08D80236813F0020F17D013F0040FE7
:10241C0004D0474A536843F4E0635360236813F0D5
:10242C00080F04D0424A536843F460535360404A47
:10243C00536823F0F003A1680B435360236813F037
:10244C00010F31D06368012B20D0022B25D0384AE4
:10245C00126812F0020F64D035494A6822F0030268
:10246C0013434B60FFF754FD0646314B5B6803F09A
:10247C000C036268B3EB820F16D0FFF749FD801B8B
:10248C0041F288339842F0D9032045E0284A12687B
:10249C0012F4003FE0D101203EE0254A126812F010
:1024AC00007FD9D1012037E0204B1B6803F00703D4
:1024BC00AB420AD91D4A136823F007032B43136060
:1024CC00136803F00703AB422DD1236813F0040FFC
:1024DC0006D0174A536823F4E063E1680B4353605A
:1024EC00236813F0080F07D0114A536823F4605384
:1024FC00216943EAC1035360FFF742FF0C4B5B6851
:10250C00C3F303130B4AD35CD8400B4B18600B4B33
:10251C001868FFF7B9FC002070BD0120704701203E
:10252C00FAE70120F8E70120F6E700BF002002409F
:10253C0000100240302F00085800002054000020EA
:10254C00014B1868704700BF5800002008B5FFF712
:10255C00F7FF044B5B68C3F30223034AD35CD840F8
:10256C0008BD00BF00100240282F000808B5FFF777
:10257C00E7FF044B5B68C3F3C223034AD35CD84028
:10258C0008BD00BF00100240282F000870B582B0B3
:10259C000446036813F0010F36D03F4BDB6913F090
:1025AC00805F49D13C4BDA6942F08052DA61DB69D9
:1025BC0003F080530193019B0125384B1B6813F4E6
:1025CC00807F3BD0344B1B6A13F4407313D062688A
:1025DC0002F440729A420ED02F4A136A23F44070D0
:1025EC002F490126C1F840640026C1F840641062EE
:1025FC0013F0010F36D1284A136A23F44073616833
:10260C000B431362002D3ED1236813F0020F06D04A
:10261C00214A536823F44043A1680B435360236859
:10262C0013F0100F34D01C4A536823F48003E16874
:10263C000B43536000202CE00025BEE7174A1368BB
:10264C0043F480731360FFF763FC0646134B1B685F
:10265C0013F4807FB6D1FFF75BFC801B6428F5D99F
:10266C00032016E0FFF754FC06460B4B1B6A13F0D5
:10267C00020FC0D1FFF74CFC801B41F2883398420B
:10268C00F3D9032005E0D36923F08053D361BBE772
:10269C00002002B070BD00BF00100240007000406E
:1026AC000000424270B582B00024A44687E07C4D05
:1026BC00AB4214D00CD8A5F58015AB420FD005F564
:1026CC007025AB420BD0A5F58015AB4212D106E0BC
:1026DC00744DAB4203D005F58035AB420AD18B6803
:1026EC00002B00F0B580012B00F0AD804261082476
:1026FC0000E0CC68BEF1FF0F00F2AC8006464FEA5A
:10270C008C0233680F25954023EA050304FA02F284
:10271C00134333604B6813F0805F4ED0624B9A6961
:10272C0042F001029A619B6903F001030193019B42
:10273C004FEA9C02951C5D4B53F825600CF0030589
:10274C00AD000F23AB4026EA0306594B984200F02C
:10275C00888003F58063984200F0858003F58063E0
:10276C0098427CD00323AB40334302324F4D45F8A3
:10277C0022304B6813F4801F77D04E4A936843EA9B
:10278C000E0393604B6813F4001F74D0494AD3684E
:10279C0043EA0E03D3604B6813F4003F71D0454AF3
:1027AC00536843EA0E0353604B6813F4803F6ED0BA
:1027BC00404A136843EA0E0313600CF1010C0B68DA
:1027CC0033FA0CF269D0012202FA0CF203EA020E7F
:1027DC0032EA0303F1D14B68122B3FF668AF122B90
:1027EC0088D801A555F823F0EB260008FF26000831
:1027FC00472800085928000801270008012700086D
:10280C0001270008012700080127000801270008FC
:10281C0001270008012700080127000801270008EC
:10282C00012700080127000801270008412800089B
:10283C004D280008CC6804345CE7CC68083459E7B0
:10284C00CC680C3456E70261082453E7002451E7A6
:10285C0004244FE7061DACF10802920051E7022355
:10286C0081E700237FE701237DE7124A936823EA7F
:10287C000E03936086E70F4AD36823EA0E03D360F6
:10288C0089E70C4A536823EA0E0353608CE7094A24
:10289C00136823EA0E0313608FE702B070BD00BF0C
:1028AC000000221000003110001002400000014016
:1028BC0000080140000401408368194201D0012046
:1028CC007047002070470AB101617047090401612B
:1028DC007047C36801EA030221EA030141EA02419D
:1028EC0001617047002808DB0901C9B200F16040A2
:1028FC0000F5614080F80013704700F00F000901EB
:10290C00C9B2014B1954704714ED00E000B500F04A
:10291C000700C0F1070CBCF1040F28BF4FF0040CEA
:10292C00031D062B0FD9C31E4FF0FF3E0EFA0CF001
:10293C0021EA000199400EFA03FE22EA0E0241EA56
:10294C0002005DF804FB0023EEE70000074AD368A1
:10295C0023F4E0631B041B0C000200F4E06003434F
:10296C0043F0BF6343F40033D360704700ED00E0E5
:10297C0010B50446054BD868C0F30220FFF7C6FF1C
:10298C0001462046FFF7AEFF10BD00BF00ED00E092
:10299C00002807DB00F01F02400901239340024A84
:1029AC0042F82030704700BF00E100E00138B0F180
:1029BC00807F0BD24FF0E0235861054AF02182F85A
:1029CC0023100020986107221A617047012070477C
:1029DC0000ED00E0026802F10C0353E8003F23F421
:1029EC0090730C3242E800310029F3D1026802F1F5
:1029FC00140353E8003F23F00103143242E8003182
:102A0C000029F3D1036B012B05D0202380F8423031
:102A1C00002303637047026802F10C0353E8003F84
:102A2C0023F010030C3242E800310029F3D1ECE71B
:102A3C0010B504460268136923F44053C1680B4374
:102A4C00136183680269134342691A430168CB68B6
:102A5C0023F4B05323F00C031343CB600268536987
:102A6C0023F4407381690B4353610268134B9A4200
:102A7C0020D0FFF76BFD024602EB820202EB8202D2
:102A8C0063689B00B2FBF3F20D48A0FB02314909CD
:102A9C00642303FB11231B013233A0FB03035B09EB
:102AAC0003F0F00202EB011203F00F032168134450
:102ABC008B6010BDFFF75AFD0246DDE70038014080
:102ACC001F85EB512DE9F04383B005460E461746A2
:102ADC009946DDF828802B681C6836EA04040CBF84
:102AEC0001240024BC4228D1B8F1FF3FF3D0FFF7FA
:102AFC000FFAA0EB0900404523D8B8F1000F22D003
:102B0C002B68DA6812F0040FE5D0802EE3D0402E4B
:102B1C00E1D01A6812F0080FDDD0002401941A6875
:102B2C0001925B680193019B2846FFF753FF082332
:102B3C006B6485F84040012000E0002003B0BDE844
:102B4C00F0830320FAE70320F8E760B310B50446DE
:102B5C0090F8413013B3242384F841302268D368B1
:102B6C0023F40053D3602046FFF762FF22681369F9
:102B7C0023F4904313612268536923F02A035361B1
:102B8C002268D36843F40053D36000206064202390
:102B9C0084F8413084F84230606310BD80F84030D6
:102BAC00FEF7AEFED7E7012070472DE9F04182B069
:102BBC001E4690F84130DBB2202B56D104460D4610
:102BCC009046002955D00AB901204FE000234364F8
:102BDC00212380F84130FFF79BF90746A4F82480A5
:102BEC00A4F82680A368B3F5805F02D04FF00008EC
:102BFC0014E023692BB34FF000080FE0202384F876
:102C0C004130032032E038F8023B2268C3F308035A
:102C1C005360E28C92B2013A92B2E284E38C9BB2A2
:102C2C0093B100963B46002280212046FFF74AFFD5
:102C3C000028E3D1002DE6D015F8012B23685A604B
:102C4C00E7E7A8460025E9E700963B46002240212D
:102C5C002046FFF737FF18B9202384F8413005E0F0
:102C6C00202384F84130032000E0022002B0BDE8AC
:102C7C00F0810120FAE7704710B503460C4A0D4964
:102C8C000D48006840B10C4800680344521A934246
:102C9C0006D8094A136010BD0748084C0460F2E7D7
:102CAC00FDF7F0FA0C2303604FF0FF30F3E700BFA1
:102CBC00002800200004000090020020A002002048
:102CCC00014B1870012070475C00002070B500F0BB
:102CDC00A5F880BB06460024254601E0013464B209
:102CEC00172C12DC012000F08DF80A2000F0A2F85D
:102CFC006D00002000F086F80A2000F09BF800F030
:102D0C008DF80028EAD00135E8E785F400050CE0E1
:102D1C00012000F077F80A2000F08CF8002000F079
:102D2C0071F80A2000F086F80136044B1B78B34288
:102D3C00EEDC284670BD0025FBE700BF5C000020E0
:102D4C0010B50024632C0CDCFFF7C0FF28B942F24D
:102D5C00107000F06FF80134F4E7034A9060012022
:102D6C0010BD0220FCE700BF5C000020F8B50C464B
:102D7C0016461D46FFF7A4FFFFF7E2FFE8B114B1BA
:102D8C000E4B5E609D600D4CE5682069A668801B4B
:102D9C00FEF70EFA01462846FEF712FB0546606167
:102DAC0067683046FEF700FA2946FEF755FA0146E9
:102DBC003846FEF747F9A0610120F8BD5C00002001
:102DCC0038B5FFF783FF58B1064C6569FEF7ECF98F
:102DDC0001462846FEF740FAA169FEF735F938BDE1
:102DEC000020FCE75C00002008B5012000F00AF888
:102DFC00012008BD024B07C883E80700704700BFDD
:102E0C009402002008B5044B1B6813B198470020AE
:102E1C0008BD4FF0FF30FBE79402002008B5044BCF
:102E2C005B680BB1984708BD4FF0FF30FBE700BF64
:102E3C009402002008B5044B9B6813B198470020FE
:102E4C0008BD4FF0FF30FBE794020020FFF713FFA3
:102E5C000B480C490C4A002302E0D458C4500433EC
:102E6C00C4188C42F9D3094A094C002301E01360C1
:102E7C000432A242FBD3FDF70BFAFEF709FC7047B4
:102E8C000000002078000020502F0008780000205F
:102E9C00A0020020FEE70000F8B500BFF8BC08BC9B
:102EAC009E467047F8B500BFF8BC08BC9E467047FC
:102EBC00051800081D180008C51800085765696733
:102ECC0068743A2025732867290A0000232D302BBB
:102EDC0020000000686C4C006566674546470000A2
:102EEC003031323334353637383941424344454634
:102EFC0000000000303132333435363738396162F6
:102F0C006364656600000000010200000203040512
:102F1C00060708090A0B0C0D0E0F1010000000001C
:102F2C000102030400000000000000000102030481
:042F3C000607080973
:082F4000A4DFFF7F0100000087
:042F48006116000806
:042F4C003D16000826
:102F5000040000200000000078000020E0000020B5
:102F600048010020000000000000000000000000F8
:102F70000000000000000000000000000000000051
:102F80000000000000000000000000000000000041
:102F90000000000000000000000000000000000031
:102FA000010000001000000000127A000100000083
:102FB000000000000000000000003C43DBE9760058
:082FC000000000000000000009
:0400000508002E5968
:00000001FF
